{
  "_format": "hh-sol-artifact-1",
  "contractName": "NguyenThanhAn",
  "sourceName": "contracts/NguyenThanhAn.sol",
  "abi": [
    {
      "inputs": [],
      "stateMutability": "nonpayable",
      "type": "constructor"
    },
    {
      "anonymous": false,
      "inputs": [
        {
          "indexed": true,
          "internalType": "address",
          "name": "owner",
          "type": "address"
        },
        {
          "indexed": true,
          "internalType": "address",
          "name": "spender",
          "type": "address"
        },
        {
          "indexed": false,
          "internalType": "uint256",
          "name": "value",
          "type": "uint256"
        }
      ],
      "name": "Approval",
      "type": "event"
    },
    {
      "anonymous": false,
      "inputs": [
        {
          "indexed": true,
          "internalType": "address",
          "name": "previousOwner",
          "type": "address"
        },
        {
          "indexed": true,
          "internalType": "address",
          "name": "newOwner",
          "type": "address"
        }
      ],
      "name": "OwnershipTransferred",
      "type": "event"
    },
    {
      "anonymous": false,
      "inputs": [
        {
          "indexed": true,
          "internalType": "address",
          "name": "from",
          "type": "address"
        },
        {
          "indexed": true,
          "internalType": "address",
          "name": "to",
          "type": "address"
        },
        {
          "indexed": false,
          "internalType": "uint256",
          "name": "value",
          "type": "uint256"
        }
      ],
      "name": "Transfer",
      "type": "event"
    },
    {
      "inputs": [],
      "name": "BASE",
      "outputs": [
        {
          "internalType": "uint256",
          "name": "",
          "type": "uint256"
        }
      ],
      "stateMutability": "view",
      "type": "function"
    },
    {
      "inputs": [
        {
          "internalType": "address",
          "name": "owner",
          "type": "address"
        },
        {
          "internalType": "address",
          "name": "spender",
          "type": "address"
        }
      ],
      "name": "allowance",
      "outputs": [
        {
          "internalType": "uint256",
          "name": "",
          "type": "uint256"
        }
      ],
      "stateMutability": "view",
      "type": "function"
    },
    {
      "inputs": [
        {
          "internalType": "address",
          "name": "spender",
          "type": "address"
        },
        {
          "internalType": "uint256",
          "name": "amount",
          "type": "uint256"
        }
      ],
      "name": "approve",
      "outputs": [
        {
          "internalType": "bool",
          "name": "",
          "type": "bool"
        }
      ],
      "stateMutability": "nonpayable",
      "type": "function"
    },
    {
      "inputs": [
        {
          "internalType": "address",
          "name": "account",
          "type": "address"
        }
      ],
      "name": "balanceOf",
      "outputs": [
        {
          "internalType": "uint256",
          "name": "",
          "type": "uint256"
        }
      ],
      "stateMutability": "view",
      "type": "function"
    },
    {
      "inputs": [
        {
          "internalType": "uint256",
          "name": "amount",
          "type": "uint256"
        }
      ],
      "name": "buyTokens",
      "outputs": [],
      "stateMutability": "payable",
      "type": "function"
    },
    {
      "inputs": [],
      "name": "decimals",
      "outputs": [
        {
          "internalType": "uint8",
          "name": "",
          "type": "uint8"
        }
      ],
      "stateMutability": "view",
      "type": "function"
    },
    {
      "inputs": [
        {
          "internalType": "address",
          "name": "spender",
          "type": "address"
        },
        {
          "internalType": "uint256",
          "name": "subtractedValue",
          "type": "uint256"
        }
      ],
      "name": "decreaseAllowance",
      "outputs": [
        {
          "internalType": "bool",
          "name": "",
          "type": "bool"
        }
      ],
      "stateMutability": "nonpayable",
      "type": "function"
    },
    {
      "inputs": [
        {
          "internalType": "address",
          "name": "spender",
          "type": "address"
        },
        {
          "internalType": "uint256",
          "name": "addedValue",
          "type": "uint256"
        }
      ],
      "name": "increaseAllowance",
      "outputs": [
        {
          "internalType": "bool",
          "name": "",
          "type": "bool"
        }
      ],
      "stateMutability": "nonpayable",
      "type": "function"
    },
    {
      "inputs": [],
      "name": "lastPriceUpdate",
      "outputs": [
        {
          "internalType": "uint256",
          "name": "",
          "type": "uint256"
        }
      ],
      "stateMutability": "view",
      "type": "function"
    },
    {
      "inputs": [],
      "name": "name",
      "outputs": [
        {
          "internalType": "string",
          "name": "",
          "type": "string"
        }
      ],
      "stateMutability": "view",
      "type": "function"
    },
    {
      "inputs": [],
      "name": "owner",
      "outputs": [
        {
          "internalType": "address",
          "name": "",
          "type": "address"
        }
      ],
      "stateMutability": "view",
      "type": "function"
    },
    {
      "inputs": [],
      "name": "renounceOwnership",
      "outputs": [],
      "stateMutability": "nonpayable",
      "type": "function"
    },
    {
      "inputs": [
        {
          "internalType": "uint256",
          "name": "amount",
          "type": "uint256"
        }
      ],
      "name": "sellTokens",
      "outputs": [],
      "stateMutability": "nonpayable",
      "type": "function"
    },
    {
      "inputs": [],
      "name": "symbol",
      "outputs": [
        {
          "internalType": "string",
          "name": "",
          "type": "string"
        }
      ],
      "stateMutability": "view",
      "type": "function"
    },
    {
      "inputs": [],
      "name": "tokenPrice",
      "outputs": [
        {
          "internalType": "uint256",
          "name": "",
          "type": "uint256"
        }
      ],
      "stateMutability": "view",
      "type": "function"
    },
    {
      "inputs": [],
      "name": "totalSupply",
      "outputs": [
        {
          "internalType": "uint256",
          "name": "",
          "type": "uint256"
        }
      ],
      "stateMutability": "view",
      "type": "function"
    },
    {
      "inputs": [
        {
          "internalType": "address",
          "name": "to",
          "type": "address"
        },
        {
          "internalType": "uint256",
          "name": "amount",
          "type": "uint256"
        }
      ],
      "name": "transfer",
      "outputs": [
        {
          "internalType": "bool",
          "name": "",
          "type": "bool"
        }
      ],
      "stateMutability": "nonpayable",
      "type": "function"
    },
    {
      "inputs": [
        {
          "internalType": "address",
          "name": "from",
          "type": "address"
        },
        {
          "internalType": "address",
          "name": "to",
          "type": "address"
        },
        {
          "internalType": "uint256",
          "name": "amount",
          "type": "uint256"
        }
      ],
      "name": "transferFrom",
      "outputs": [
        {
          "internalType": "bool",
          "name": "",
          "type": "bool"
        }
      ],
      "stateMutability": "nonpayable",
      "type": "function"
    },
    {
      "inputs": [
        {
          "internalType": "address",
          "name": "newOwner",
          "type": "address"
        }
      ],
      "name": "transferOwnership",
      "outputs": [],
      "stateMutability": "nonpayable",
      "type": "function"
    },
    {
      "inputs": [],
      "name": "updateTokenPrice",
      "outputs": [],
      "stateMutability": "nonpayable",
      "type": "function"
    },
    {
      "stateMutability": "payable",
      "type": "receive"
    }
  ],
  "bytecode": "0x60806040526601c6bf526340006006553480156200001c57600080fd5b506040518060400160405280600781526020017f5468616e68416e000000000000000000000000000000000000000000000000008152506040518060400160405280600381526020017f414e5400000000000000000000000000000000000000000000000000000000008152508160039080519060200190620000a192919062000371565b508060049080519060200190620000ba92919062000371565b505050620000dd620000d16200012260201b60201c565b6200012a60201b60201c565b6200011c33620000f2620001f060201b60201c565b600a6200010091906200057c565b620186a0620001109190620006b9565b620001f960201b60201c565b620007d2565b600033905090565b6000600560009054906101000a900473ffffffffffffffffffffffffffffffffffffffff16905081600560006101000a81548173ffffffffffffffffffffffffffffffffffffffff021916908373ffffffffffffffffffffffffffffffffffffffff1602179055508173ffffffffffffffffffffffffffffffffffffffff168173ffffffffffffffffffffffffffffffffffffffff167f8be0079c531659141344cd1fd0a4f28419497f9722a3daafe3b4186f6b6457e060405160405180910390a35050565b60006012905090565b600073ffffffffffffffffffffffffffffffffffffffff168273ffffffffffffffffffffffffffffffffffffffff1614156200026c576040517f08c379a0000000000000000000000000000000000000000000000000000000008152600401620002639062000474565b60405180910390fd5b62000280600083836200036760201b60201c565b8060026000828254620002949190620004c4565b92505081905550806000808473ffffffffffffffffffffffffffffffffffffffff1673ffffffffffffffffffffffffffffffffffffffff168152602001908152602001600020600082825401925050819055508173ffffffffffffffffffffffffffffffffffffffff16600073ffffffffffffffffffffffffffffffffffffffff167fddf252ad1be2c89b69c2b068fc378daa952ba7f163c4a11628f55a4df523b3ef8360405162000347919062000496565b60405180910390a362000363600083836200036c60201b60201c565b5050565b505050565b505050565b8280546200037f9062000731565b90600052602060002090601f016020900481019282620003a35760008555620003ef565b82601f10620003be57805160ff1916838001178555620003ef565b82800160010185558215620003ef579182015b82811115620003ee578251825591602001919060010190620003d1565b5b509050620003fe919062000402565b5090565b5b808211156200041d57600081600090555060010162000403565b5090565b600062000430601f83620004b3565b91507f45524332303a206d696e7420746f20746865207a65726f2061646472657373006000830152602082019050919050565b6200046e816200071a565b82525050565b600060208201905081810360008301526200048f8162000421565b9050919050565b6000602082019050620004ad600083018462000463565b92915050565b600082825260208201905092915050565b6000620004d1826200071a565b9150620004de836200071a565b9250827fffffffffffffffffffffffffffffffffffffffffffffffffffffffffffffffff0382111562000516576200051562000767565b5b828201905092915050565b6000808291508390505b600185111562000573578086048111156200054b576200054a62000767565b5b60018516156200055b5780820291505b80810290506200056b85620007c5565b94506200052b565b94509492505050565b600062000589826200071a565b9150620005968362000724565b9250620005c57fffffffffffffffffffffffffffffffffffffffffffffffffffffffffffffffff8484620005cd565b905092915050565b600082620005df5760019050620006b2565b81620005ef5760009050620006b2565b8160018114620006085760028114620006135762000649565b6001915050620006b2565b60ff84111562000628576200062762000767565b5b8360020a91508482111562000642576200064162000767565b5b50620006b2565b5060208310610133831016604e8410600b8410161715620006835782820a9050838111156200067d576200067c62000767565b5b620006b2565b62000692848484600162000521565b92509050818404811115620006ac57620006ab62000767565b5b81810290505b9392505050565b6000620006c6826200071a565b9150620006d3836200071a565b9250817fffffffffffffffffffffffffffffffffffffffffffffffffffffffffffffffff04831182151516156200070f576200070e62000767565b5b828202905092915050565b6000819050919050565b600060ff82169050919050565b600060028204905060018216806200074a57607f821691505b6020821081141562000761576200076062000796565b5b50919050565b7f4e487b7100000000000000000000000000000000000000000000000000000000600052601160045260246000fd5b7f4e487b7100000000000000000000000000000000000000000000000000000000600052602260045260246000fd5b60008160011c9050919050565b611f6e80620007e26000396000f3fe6080604052600436106101235760003560e01c806370a08231116100a0578063a457c2d711610064578063a457c2d7146103c3578063a9059cbb14610400578063dd62ed3e1461043d578063ec342ad01461047a578063f2fde38b146104a55761012a565b806370a08231146102ee578063715018a61461032b5780637ff9b596146103425780638da5cb5b1461036d57806395d89b41146103985761012a565b8063313ce567116100e7578063313ce567146102165780633610724e14610241578063395093511461025d5780636949faeb1461029a5780636c11bcd3146102c55761012a565b806306fdde031461012f5780630790c5371461015a578063095ea7b31461017157806318160ddd146101ae57806323b872dd146101d95761012a565b3661012a57005b600080fd5b34801561013b57600080fd5b506101446104ce565b60405161015191906118eb565b60405180910390f35b34801561016657600080fd5b5061016f610560565b005b34801561017d57600080fd5b5061019860048036038101906101939190611351565b6105f3565b6040516101a591906118d0565b60405180910390f35b3480156101ba57600080fd5b506101c3610616565b6040516101d09190611acd565b60405180910390f35b3480156101e557600080fd5b5061020060048036038101906101fb9190611302565b610620565b60405161020d91906118d0565b60405180910390f35b34801561022257600080fd5b5061022b61064f565b6040516102389190611ae8565b60405180910390f35b61025b6004803603810190610256919061138d565b610658565b005b34801561026957600080fd5b50610284600480360381019061027f9190611351565b6107e0565b60405161029191906118d0565b60405180910390f35b3480156102a657600080fd5b506102af610817565b6040516102bc9190611acd565b60405180910390f35b3480156102d157600080fd5b506102ec60048036038101906102e7919061138d565b61081d565b005b3480156102fa57600080fd5b506103156004803603810190610310919061129d565b610983565b6040516103229190611acd565b60405180910390f35b34801561033757600080fd5b506103406109cb565b005b34801561034e57600080fd5b506103576109df565b6040516103649190611acd565b60405180910390f35b34801561037957600080fd5b506103826109e5565b60405161038f91906118b5565b60405180910390f35b3480156103a457600080fd5b506103ad610a0f565b6040516103ba91906118eb565b60405180910390f35b3480156103cf57600080fd5b506103ea60048036038101906103e59190611351565b610aa1565b6040516103f791906118d0565b60405180910390f35b34801561040c57600080fd5b5061042760048036038101906104229190611351565b610b18565b60405161043491906118d0565b60405180910390f35b34801561044957600080fd5b50610464600480360381019061045f91906112c6565b610b3b565b6040516104719190611acd565b60405180910390f35b34801561048657600080fd5b5061048f610bc2565b60405161049c9190611acd565b60405180910390f35b3480156104b157600080fd5b506104cc60048036038101906104c7919061129d565b610bca565b005b6060600380546104dd90611e2d565b80601f016020809104026020016040519081016040528092919081815260200182805461050990611e2d565b80156105565780601f1061052b57610100808354040283529160200191610556565b820191906000526020600020905b81548152906001019060200180831161053957829003601f168201915b5050505050905090565b600062015180600754426105749190611d71565b61057e9190611b75565b905060008111156105f057600047905060006377359400826105a09190611b75565b905082816105ae9190611d17565b600660008282546105bf9190611b1f565b9250508190555062015180836105d59190611d17565b600760008282546105e69190611b1f565b9250508190555050505b50565b6000806105fe610c4e565b905061060b818585610c56565b600191505092915050565b6000600254905090565b60008061062b610c4e565b9050610638858285610e21565b610643858585610ead565b60019150509392505050565b60006012905090565b610660610560565b600081116106a3576040517f08c379a000000000000000000000000000000000000000000000000000000000815260040161069a906119ad565b60405180910390fd5b806106b46106af6109e5565b610983565b10156106f5576040517f08c379a00000000000000000000000000000000000000000000000000000000081526004016106ec90611a2d565b60405180910390fd5b60006106ff61064f565b600a61070b9190611bf9565b600654836107199190611d17565b6107239190611b75565b905080341015610768576040517f08c379a000000000000000000000000000000000000000000000000000000000815260040161075f9061192d565b60405180910390fd5b61077a6107736109e5565b3384610ead565b600081346107889190611d71565b905060008111156107db573373ffffffffffffffffffffffffffffffffffffffff166108fc829081150290604051600060405180830381858888f193505050501580156107d9573d6000803e3d6000fd5b505b505050565b6000806107eb610c4e565b905061080c8185856107fd8589610b3b565b6108079190611b1f565b610c56565b600191505092915050565b60075481565b610825610560565b60008111610868576040517f08c379a000000000000000000000000000000000000000000000000000000000815260040161085f906119ad565b60405180910390fd5b8061087233610983565b10156108b3576040517f08c379a00000000000000000000000000000000000000000000000000000000081526004016108aa906119ed565b60405180910390fd5b60006108bd61064f565b600a6108c99190611bf9565b600654836108d79190611d17565b6108e19190611b75565b905080471015610926576040517f08c379a000000000000000000000000000000000000000000000000000000000815260040161091d90611a8d565b60405180910390fd5b610938336109326109e5565b84610ead565b3373ffffffffffffffffffffffffffffffffffffffff166108fc829081150290604051600060405180830381858888f1935050505015801561097e573d6000803e3d6000fd5b505050565b60008060008373ffffffffffffffffffffffffffffffffffffffff1673ffffffffffffffffffffffffffffffffffffffff168152602001908152602001600020549050919050565b6109d3611125565b6109dd60006111a3565b565b60065481565b6000600560009054906101000a900473ffffffffffffffffffffffffffffffffffffffff16905090565b606060048054610a1e90611e2d565b80601f0160208091040260200160405190810160405280929190818152602001828054610a4a90611e2d565b8015610a975780601f10610a6c57610100808354040283529160200191610a97565b820191906000526020600020905b815481529060010190602001808311610a7a57829003601f168201915b5050505050905090565b600080610aac610c4e565b90506000610aba8286610b3b565b905083811015610aff576040517f08c379a0000000000000000000000000000000000000000000000000000000008152600401610af690611aad565b60405180910390fd5b610b0c8286868403610c56565b60019250505092915050565b600080610b23610c4e565b9050610b30818585610ead565b600191505092915050565b6000600160008473ffffffffffffffffffffffffffffffffffffffff1673ffffffffffffffffffffffffffffffffffffffff16815260200190815260200160002060008373ffffffffffffffffffffffffffffffffffffffff1673ffffffffffffffffffffffffffffffffffffffff16815260200190815260200160002054905092915050565b637735940081565b610bd2611125565b600073ffffffffffffffffffffffffffffffffffffffff168173ffffffffffffffffffffffffffffffffffffffff161415610c42576040517f08c379a0000000000000000000000000000000000000000000000000000000008152600401610c399061194d565b60405180910390fd5b610c4b816111a3565b50565b600033905090565b600073ffffffffffffffffffffffffffffffffffffffff168373ffffffffffffffffffffffffffffffffffffffff161415610cc6576040517f08c379a0000000000000000000000000000000000000000000000000000000008152600401610cbd90611a6d565b60405180910390fd5b600073ffffffffffffffffffffffffffffffffffffffff168273ffffffffffffffffffffffffffffffffffffffff161415610d36576040517f08c379a0000000000000000000000000000000000000000000000000000000008152600401610d2d9061196d565b60405180910390fd5b80600160008573ffffffffffffffffffffffffffffffffffffffff1673ffffffffffffffffffffffffffffffffffffffff16815260200190815260200160002060008473ffffffffffffffffffffffffffffffffffffffff1673ffffffffffffffffffffffffffffffffffffffff168152602001908152602001600020819055508173ffffffffffffffffffffffffffffffffffffffff168373ffffffffffffffffffffffffffffffffffffffff167f8c5be1e5ebec7d5bd14f71427d1e84f3dd0314c0f7b2291e5b200ac8c7c3b92583604051610e149190611acd565b60405180910390a3505050565b6000610e2d8484610b3b565b90507fffffffffffffffffffffffffffffffffffffffffffffffffffffffffffffffff8114610ea75781811015610e99576040517f08c379a0000000000000000000000000000000000000000000000000000000008152600401610e909061198d565b60405180910390fd5b610ea68484848403610c56565b5b50505050565b600073ffffffffffffffffffffffffffffffffffffffff168373ffffffffffffffffffffffffffffffffffffffff161415610f1d576040517f08c379a0000000000000000000000000000000000000000000000000000000008152600401610f1490611a4d565b60405180910390fd5b600073ffffffffffffffffffffffffffffffffffffffff168273ffffffffffffffffffffffffffffffffffffffff161415610f8d576040517f08c379a0000000000000000000000000000000000000000000000000000000008152600401610f849061190d565b60405180910390fd5b610f98838383611269565b60008060008573ffffffffffffffffffffffffffffffffffffffff1673ffffffffffffffffffffffffffffffffffffffff1681526020019081526020016000205490508181101561101e576040517f08c379a0000000000000000000000000000000000000000000000000000000008152600401611015906119cd565b60405180910390fd5b8181036000808673ffffffffffffffffffffffffffffffffffffffff1673ffffffffffffffffffffffffffffffffffffffff16815260200190815260200160002081905550816000808573ffffffffffffffffffffffffffffffffffffffff1673ffffffffffffffffffffffffffffffffffffffff168152602001908152602001600020600082825401925050819055508273ffffffffffffffffffffffffffffffffffffffff168473ffffffffffffffffffffffffffffffffffffffff167fddf252ad1be2c89b69c2b068fc378daa952ba7f163c4a11628f55a4df523b3ef8460405161110c9190611acd565b60405180910390a361111f84848461126e565b50505050565b61112d610c4e565b73ffffffffffffffffffffffffffffffffffffffff1661114b6109e5565b73ffffffffffffffffffffffffffffffffffffffff16146111a1576040517f08c379a000000000000000000000000000000000000000000000000000000000815260040161119890611a0d565b60405180910390fd5b565b6000600560009054906101000a900473ffffffffffffffffffffffffffffffffffffffff16905081600560006101000a81548173ffffffffffffffffffffffffffffffffffffffff021916908373ffffffffffffffffffffffffffffffffffffffff1602179055508173ffffffffffffffffffffffffffffffffffffffff168173ffffffffffffffffffffffffffffffffffffffff167f8be0079c531659141344cd1fd0a4f28419497f9722a3daafe3b4186f6b6457e060405160405180910390a35050565b505050565b505050565b60008135905061128281611f0a565b92915050565b60008135905061129781611f21565b92915050565b6000602082840312156112af57600080fd5b60006112bd84828501611273565b91505092915050565b600080604083850312156112d957600080fd5b60006112e785828601611273565b92505060206112f885828601611273565b9150509250929050565b60008060006060848603121561131757600080fd5b600061132586828701611273565b935050602061133686828701611273565b925050604061134786828701611288565b9150509250925092565b6000806040838503121561136457600080fd5b600061137285828601611273565b925050602061138385828601611288565b9150509250929050565b60006020828403121561139f57600080fd5b60006113ad84828501611288565b91505092915050565b6113bf81611da5565b82525050565b6113ce81611db7565b82525050565b60006113df82611b03565b6113e98185611b0e565b93506113f9818560208601611dfa565b61140281611eec565b840191505092915050565b600061141a602383611b0e565b91507f45524332303a207472616e7366657220746f20746865207a65726f206164647260008301527f65737300000000000000000000000000000000000000000000000000000000006020830152604082019050919050565b6000611480601583611b0e565b91507f4e6f7420656e6f7567682045746865722073656e7400000000000000000000006000830152602082019050919050565b60006114c0602683611b0e565b91507f4f776e61626c653a206e6577206f776e657220697320746865207a65726f206160008301527f64647265737300000000000000000000000000000000000000000000000000006020830152604082019050919050565b6000611526602283611b0e565b91507f45524332303a20617070726f766520746f20746865207a65726f20616464726560008301527f73730000000000000000000000000000000000000000000000000000000000006020830152604082019050919050565b600061158c601d83611b0e565b91507f45524332303a20696e73756666696369656e7420616c6c6f77616e63650000006000830152602082019050919050565b60006115cc601d83611b0e565b91507f416d6f756e74206d7573742062652067726561746572207468616e20300000006000830152602082019050919050565b600061160c602683611b0e565b91507f45524332303a207472616e7366657220616d6f756e742065786365656473206260008301527f616c616e636500000000000000000000000000000000000000000000000000006020830152604082019050919050565b6000611672601983611b0e565b91507f4e6f7420656e6f75676820746f6b656e7320746f2073656c6c000000000000006000830152602082019050919050565b60006116b2602083611b0e565b91507f4f776e61626c653a2063616c6c6572206973206e6f7420746865206f776e65726000830152602082019050919050565b60006116f2601b83611b0e565b91507f4e6f7420656e6f75676820746f6b656e7320617661696c61626c6500000000006000830152602082019050919050565b6000611732602583611b0e565b91507f45524332303a207472616e736665722066726f6d20746865207a65726f20616460008301527f64726573730000000000000000000000000000000000000000000000000000006020830152604082019050919050565b6000611798602483611b0e565b91507f45524332303a20617070726f76652066726f6d20746865207a65726f2061646460008301527f72657373000000000000000000000000000000000000000000000000000000006020830152604082019050919050565b60006117fe601a83611b0e565b91507f4e6f7420656e6f7567682045544820696e20636f6e74726163740000000000006000830152602082019050919050565b600061183e602583611b0e565b91507f45524332303a2064656372656173656420616c6c6f77616e63652062656c6f7760008301527f207a65726f0000000000000000000000000000000000000000000000000000006020830152604082019050919050565b6118a081611de3565b82525050565b6118af81611ded565b82525050565b60006020820190506118ca60008301846113b6565b92915050565b60006020820190506118e560008301846113c5565b92915050565b6000602082019050818103600083015261190581846113d4565b905092915050565b600060208201905081810360008301526119268161140d565b9050919050565b6000602082019050818103600083015261194681611473565b9050919050565b60006020820190508181036000830152611966816114b3565b9050919050565b6000602082019050818103600083015261198681611519565b9050919050565b600060208201905081810360008301526119a68161157f565b9050919050565b600060208201905081810360008301526119c6816115bf565b9050919050565b600060208201905081810360008301526119e6816115ff565b9050919050565b60006020820190508181036000830152611a0681611665565b9050919050565b60006020820190508181036000830152611a26816116a5565b9050919050565b60006020820190508181036000830152611a46816116e5565b9050919050565b60006020820190508181036000830152611a6681611725565b9050919050565b60006020820190508181036000830152611a868161178b565b9050919050565b60006020820190508181036000830152611aa6816117f1565b9050919050565b60006020820190508181036000830152611ac681611831565b9050919050565b6000602082019050611ae26000830184611897565b92915050565b6000602082019050611afd60008301846118a6565b92915050565b600081519050919050565b600082825260208201905092915050565b6000611b2a82611de3565b9150611b3583611de3565b9250827fffffffffffffffffffffffffffffffffffffffffffffffffffffffffffffffff03821115611b6a57611b69611e5f565b5b828201905092915050565b6000611b8082611de3565b9150611b8b83611de3565b925082611b9b57611b9a611e8e565b5b828204905092915050565b6000808291508390505b6001851115611bf057808604811115611bcc57611bcb611e5f565b5b6001851615611bdb5780820291505b8081029050611be985611efd565b9450611bb0565b94509492505050565b6000611c0482611de3565b9150611c0f83611ded565b9250611c3c7fffffffffffffffffffffffffffffffffffffffffffffffffffffffffffffffff8484611c44565b905092915050565b600082611c545760019050611d10565b81611c625760009050611d10565b8160018114611c785760028114611c8257611cb1565b6001915050611d10565b60ff841115611c9457611c93611e5f565b5b8360020a915084821115611cab57611caa611e5f565b5b50611d10565b5060208310610133831016604e8410600b8410161715611ce65782820a905083811115611ce157611ce0611e5f565b5b611d10565b611cf38484846001611ba6565b92509050818404811115611d0a57611d09611e5f565b5b81810290505b9392505050565b6000611d2282611de3565b9150611d2d83611de3565b9250817fffffffffffffffffffffffffffffffffffffffffffffffffffffffffffffffff0483118215151615611d6657611d65611e5f565b5b828202905092915050565b6000611d7c82611de3565b9150611d8783611de3565b925082821015611d9a57611d99611e5f565b5b828203905092915050565b6000611db082611dc3565b9050919050565b60008115159050919050565b600073ffffffffffffffffffffffffffffffffffffffff82169050919050565b6000819050919050565b600060ff82169050919050565b60005b83811015611e18578082015181840152602081019050611dfd565b83811115611e27576000848401525b50505050565b60006002820490506001821680611e4557607f821691505b60208210811415611e5957611e58611ebd565b5b50919050565b7f4e487b7100000000000000000000000000000000000000000000000000000000600052601160045260246000fd5b7f4e487b7100000000000000000000000000000000000000000000000000000000600052601260045260246000fd5b7f4e487b7100000000000000000000000000000000000000000000000000000000600052602260045260246000fd5b6000601f19601f8301169050919050565b60008160011c9050919050565b611f1381611da5565b8114611f1e57600080fd5b50565b611f2a81611de3565b8114611f3557600080fd5b5056fea26469706673582212205581d2ca8300eb7fd91e6d6281c36823de398d0ef8c5f1e9227c9f607fc0291864736f6c63430008000033",
  "linkReferences": {},
  "deployedLinkReferences": {}
}